S00D00004341525F322E73726563B0
S11300000C942A000C9447000C9447000C94D201E1
S11300100C9447000C9447000C9447000C94470040
S11300200C9447000C9447000C9447000C94470030
S11300300C9447000C9447000C9447000C94470020
S11300400C9447000C9447000C9447000C94470010
S11300500C94470011241FBECFE5D8E0DEBFCDBF0E
S113006010E0A0E6B0E0E0E4FDE002C005900D92EF
S1130070A236B107D9F720E0A2E6B0E001C01D9294
S1130080AC36B207E1F70E9449000C949E060C942A
S1130090000064E670E080E090E00E940C040E949E
S11300A05A0064E670E080E090E00E940C040E9434
S11300B06000FDCF0E9404060E94600480E0089561
S11300C0CF93DF9300D0CDB7DEB71A82198210E048
S11300D0EE24E3946894FF24F1F800E001C01F2D9E
S11300E0113009F118F01230D9F729C00E943306F3
S11300F062E370E080E090E00E940C04CE0101967F
S11301000E94450629813A812333310528F068E2AB
S11301108E2D0E947804E4CF2F513109243131050A
S1130120F0F21E2DDDCF68E28F2D0E94780460E589
S113013070E080E090E00E940C04102FD1CF68E2C0
S113014083E00E94780460E570E080E090E00E9423
S11301500C04102FC5CFFC010097E9F18081813098
S113016099F028F08230E9F08330B9F527C09AB3CA
S11301708181809589238ABB9AB3228181818223DC
S1130180892B8ABB80E0089597B381818095892368
S113019087BB97B3228181818223892B87BB80E02F
S11301A0089594B381818095892384BB94B322817B
S11301B081818223892B84BB80E0089591B381815E
S11301C08095892381BB91B3228181818223892BEC
S11301D081BB80E0089581E0089581E00895813035
S11301E089F028F08230C9F0833069F521C08BB3DF
S11301F0962F909589238BBB8BB36423682B6BBBA1
S113020080E0089588B3962F9095892388BB88B39E
S11302106423682B68BB80E0089585B3962F90957E
S1130220892385BB85B36423682B65BB80E008956F
S113023082B3962F9095892382BB82B36423682B63
S113024062BB80E0089581E00895823031F083300C
S113025039F484B7806484BF089584B78F7B84BFE6
S113026008951F93CF93DF93CDB7DEB72B970FB6C7
S1130270F894DEBF0FBECDBF19821A8227E02B830C
S11302801C8232E03D831E822F83188621E0298759
S113029024E02A871B86009779F1FC012081223013
S11302A069F58181882319F08230B9F40BC0CE013D
S11302B001960E94C70460E070E080E00E94DE05C1
S11302C010E00CC0CE0105960E94C70460E070E007
S11302D082E00E94DE0510E001C011E0CE01099623
S11302E00E94AB0084B7806484BF8BB780628BBFED
S11302F08FB780688FBF03C011E001C011E0812F68
S11303002B960FB6F894DEBF0FBECDBFDF91CF9111
S11303101F9108954115510509F442C0823009F036
S11303203FC06130A1F018F06230D1F520C0809157
S1130330630020E4829FC0011124AA2797FDA095A1
S1130340BA2FFA0180839183A283B38329C0809159
S11303506200F0E48F9FC0011124AA2797FDA095A5
S1130360BA2FFA0180839183A283B38319C0809149
S113037063002091620090E0821B9109002496950D
S113038087950794969587950794982F802DAA278B
S113039097FDA095BA2FFA0180839183A283B3833A
S11303A081E008951F920F920FB60F9211242F939C
S11303B03F934F935F936F937F938F939F93AF93E9
S11303C0BF93EF93FF9380916000823069F0833094
S11303D0A1F484B58093630014BC82E00E942501DB
S11303E082E08093600009C084B58093620083E05A
S11303F00E94250183E080936000FF91EF91BF91FB
S1130400AF919F918F917F916F915F914F913F91A8
S11304102F910F900FBE0F901F901895CF93DF93DD
S1130420CDB7DEB760970FB6F894DEBF0FBECDBF71
S113043091E0998395E09A8322E02B839C8323E0C7
S11304402D8394E09E839FEF9F83288738E039872C
S11304509A872B8730E43C879D872E8720E82F8757
S1130460988B813019F08230E9F40EC0CE010596E4
S11304700E94AB00CE0108960E94AB00CE0101960B
S11304800E94EB0280E00FC0CE010B960E94AB00ED
S1130490CE010E960E94AB00CE0103960E94EB02A1
S11304A080E001C081E060960FB6F894DEBF0FBE15
S11304B0CDBFDF91CF910895813021F0823009F0D2
S11304C056C02BC0613089F020F0623009F051C071
S11304D018C040E064E083E00E94EF0040E068E080
S11304E083E00E94EF0080E008954FEF64E083E032
S11304F00E94EF0040E068E083E00E94EF0080E0AB
S1130500089540E064E083E00E94EF004FEF68E06C
S113051083E00E94EF0080E00895613081F018F0DC
S1130520623049F518C040E060E483E00E94EF00C7
S113053040E060E883E00E94EF0080E008954FEF20
S113054060E483E00E94EF0040E060E883E00E9402
S1130550EF0080E0089540E060E483E00E94EF0053
S11305604FEF60E883E00E94EF0080E0089581E0AF
S1130570089581E0089581E00895813019F0823072
S113058089F408C020E030E0A90181E00E94A203C0
S113059080E0089520E030E0A90182E00E94A203F7
S11305A080E0089581E00895813019F0823089F463
S11305B008C020E030E0A90181E00E94E10380E06E
S11305C0089520E030E0A90182E00E94E10380E088
S11305D0089581E008951F93CF93DF9300D000D056
S11305E000D0CDB7DEB733E0398320E22A832FEF82
S11305F02B833C8330E13D832E83009709F494C020
S1130600FC012081213021F0223009F08FC046C046
S1130610FC0181818330C9F028F4882341F08130C2
S113062061F50BC08530C9F0863039F51EC01092D3
S113063065001092640010E021C081E090E0909386
S113064065008093640010E019C083E090E090930B
S113065065008093640010E011C084E090E0909302
S113066065008093640010E009C085E090E09093F9
S113067065008093640010E001C011E02EB53FB521
S1130680286031603FBD2EBD2EB53FB530683FBDFB
S11306902EBDCE0101960E94AB0049C0FC018181B0
S11306A08330C9F028F4882341F0813061F50BC010
S11306B08530C9F0863039F51EC01092670010925B
S11306C0660010E021C081E090E090936700809381
S11306D0660010E019C083E090E090936700809377
S11306E0660010E011C084E090E09093670080936E
S11306F0660010E009C085E090E090936700809365
S1130700660010E001C011E02EB53FB528603160ED
S11307103FBD2EBD2EB53FB530623FBD2EBDCE01CF
S113072004960E94AB0003C011E001C011E0812FC8
S113073026960FB6F894DEBF0FBECDBFDF91CF91E2
S11307401F910895813019F08230C9F51CC04EB54F
S11307505FB58091640090916500842B952B9FBDBB
S11307608EBD8FEF689F900111243695279536959D
S11307702795ABE7B4E10E949206969587959BBDB9
S11307808ABD80E008954EB55FB580916600909172
S11307906700842B952B9FBD8EBD8FEF689F9001C2
S11307A011243695279536952795ABE7B4E10E9439
S11307B092069695879599BD88BD80E0089581E05D
S11307C00895813019F0823029F512C08FEF689FA7
S11307D0900111243695279536952795ABE7B4E11A
S11307E00E949206969587959BBD8ABD80E00895E8
S11307F08FEF689F9001112436952795369527959C
S1130800ABE7B4E10E9492069695879599BD88BDA1
S113081080E0089581E008958F929F92AF92BF92F5
S1130820EF92FF920F931F93CF93DF9300D000D0EA
S1130830CDB7DEB719821A821B821C82611571053D
S11308408105910519F52DC089809A80AB80BC8003
S1130850AFEF8A1A9A0AAA0ABA0A89829A82AB82E2
S1130860BC822150310981F74150510911F09F0197
S1130870EBCF0F5F1F4F4801AA2497FCA094BA2C1A
S113088086169706A806B90650F00BC000E010E0E3
S11308900F2EF3E1EF2EF12CF02DE0E1F0E0A701B3
S11308A0E6CF0F900F900F900F90DF91CF911F9193
S11308B00F91FF90EF90BF90AF909F908F9008950D
S11308C081E00E940E0282E00E940E0260E081E05C
S11308D00E945C0260E082E00E945C0268E281E0C7
S11308E00E94BD0268E282E00E94BD0280E0089599
S11308F0CF93DF93C62F8230F9F028F4882341F098
S11309008130C1F50FC0833009F1843099F528C0D6
S113091060E081E00E945C0260E082E00E945C0290
S1130920D0E029C061E081E00E945C0261E082E0E5
S11309300E945C02D0E01FC062E081E00E945C0281
S113094062E082E00E945C02D0E015C061E081E0D8
S11309500E945C0262E082E00E945C02D0E00BC074
S113096062E081E00E945C0261E082E00E945C023D
S1130970D0E001C0D1E06C2F81E00E94D4026C2F42
S113098082E00E94D4028D2FDF91CF910895FC0163
S1130990009709F40FC18081813009F454C020F01C
S11309A0823009F009C1B8C08181882319F08130EF
S11309B0C1F52FC083B783BF82818230B1F028F4A0
S11309C0882351F0813079F50BC08630C1F087302F
S11309D0D9F0843041F50EC01092680080E024C044
S11309E081E08093680080E01FC082E0809368000B
S11309F080E01AC083E08093680080E015C084E042
S1130A008093680080E010C085E08093680080E0F7
S1130A100BC083B7876083BF87E08093680080E062
S1130A2003C081E001C081E09381992319F09130E2
S1130A3041F403C099B799BF089599B7916099BFDC
S1130A40089581E008958181882321F0813009F09F
S1130A5051C043C08EB59FB59FBD8EBD828182308B
S1130A60E1F030F4882359F0813009F045C00DC01D
S1130A70863019F1873049F18430F1F516C01092AF
S1130A806A001092690080E038C081E090E09093A1
S1130A906A008093690080E030C082E090E0909327
S1130AA06A008093690080E028C083E090E090931E
S1130AB06A008093690080E020C084E090E0909315
S1130AC06A008093690080E018C085E090E090930C
S1130AD06A008093690080E010C08EB59FB587607E
S1130AE09FBD8EBD87E090E090936A00809369007B
S1130AF080E003C081E001C081E09381992319F073
S1130B00913041F403C099B799BF089599B794609F
S1130B1099BF089581E008958181811139C085B517
S1130B2085BD82818330D9F020F4813071F090F456
S1130B3008C08530F1F0C0F0863001F1873051F5FE
S1130B4022C010926B0080E026C081E080936B008D
S1130B5080E021C082E080936B0080E01CC083E0D1
S1130B6080936B0080E017C084E080936B0080E08A
S1130B7012C085E080936B0080E00DC086E0809316
S1130B806B0080E008C087E080936B0080E003C0C6
S1130B9081E001C081E09381992319F0913041F4FF
S1130BA003C099B799BF089599B7906899BF0895FC
S1130BB081E0089581E0089581E00895813061F035
S1130BC018F08230F9F416C062BF93B780916800C0
S1130BD0892B83BF80E008957DBD6CBD2EB53FB5E4
S1130BE08091690090916A00822B932B9FBD8EBDEA
S1130BF080E0089564BD95B580916B00892B85BD17
S1130C0080E0089581E00895CF93DF9300D000D071
S1130C101F92CDB7DEB7198282E08A839FEF9B8350
S1130C208C838D83CE0101960E94AB0081110FC08D
S1130C3040E062E00E94EF0081110BC0CE010496F7
S1130C400E94310191E0811105C090E003C091E060
S1130C5001C091E0892F0F900F900F900F900F908B
S1130C60DF91CF9108954FEF62E080E00E94EF00A2
S1130C706AE070E080E090E00E940C0440E062E0F2
S1130C8080E00E94EF0080E008950F931F93CF93BC
S1130C90DF9300D000D0CDB7DEB78C0119821A8261
S1130CA01B821C82AE014F5F5F4F61E082E00E94B5
S1130CB08A0169817A818B819C812AE330E040E05A
S1130CC050E00E947006F8013183208380E00F9089
S1130CD00F900F900F90DF91CF911F910F91089576
S1130CE0A1E21A2EAA1BBB1BFD010DC0AA1FBB1F2C
S1130CF0EE1FFF1FA217B307E407F50720F0A21B9E
S1130D00B30BE40BF50B661F771F881F991F1A940A
S1130D1069F760957095809590959B01AC01BD0134
S1130D20CF010895A29FB001B39FC001A39F01D03A
S1130D30B29F700D811D1124911D0895F894FFCF69
S1050D400300AA
S9030000FC
