:100000000C942A000C9447000C9447000C94D001E7
:100010000C9447000C9447000C9447000C94470044
:100020000C9447000C9447000C9447000C94470034
:100030000C9447000C9447000C9447000C94470024
:100040000C9447000C9447000C9447000C94470014
:100050000C94470011241FBECFE5D8E0DEBFCDBF12
:1000600010E0A0E6B0E0E4E7FCE002C005900D92ED
:10007000A236B107D9F720E0A2E6B0E001C01D9298
:10008000AC36B207E1F70E9449000C9438060C9494
:10009000000064E670E080E090E00E94C2030E94ED
:1000A0005A0064E670E080E090E00E94C2030E9483
:1000B0006000FDCF0E949E050E94160480E0089516
:1000C000CF93DF9300D0CDB7DEB71A82198210E04C
:1000D000EE24E3946894FF24F1F800E001C01F2DA2
:1000E000113019F118F01230D9F72BC00E94CD054C
:1000F00062E370E080E090E00E94C203CE010196CE
:100100000E94DF05998197BD29813A81233331050A
:1001100028F066E48E2D0E942E04E2CF2F51310983
:1001200024313105E0F21E2DDBCF60E58F2D0E94DA
:100130002E0460E570E080E090E00E94C203102F82
:10014000CFCF60E583E00E942E0460E570E080E0A0
:1001500090E00E94C203102FC3CFFC010097E9F189
:100160008081813099F028F08230E9F08330B9F550
:1001700027C09AB38181809589238ABB9AB3228153
:1001800081818223892B8ABB80E0089597B3818186
:100190008095892387BB97B3228181818223892B14
:1001A00087BB80E0089594B381818095892384BBC7
:1001B00094B3228181818223892B84BB80E00895BE
:1001C00091B381818095892381BB91B32281818103
:1001D0008223892B81BB80E0089581E0089581E02E
:1001E0000895813089F028F08230C9F0833069F5B4
:1001F00021C08BB3962F909589238BBB8BB364233F
:10020000682B6BBB80E0089588B3962F9095892367
:1002100088BB88B36423682B68BB80E0089585B3EE
:10022000962F9095892385BB85B36423682B65BB86
:1002300080E0089582B3962F9095892382BB82B384
:100240006423682B62BB80E0089581E008958230CA
:1002500031F0833039F484B7806484BF089584B763
:100260008F7B84BF0895CF93DF93CDB7DEB72B97F5
:100270000FB6F894DEBF0FBECDBF19821A8227E0F9
:100280002B831C8232E03D831E822F83188621E05F
:10029000298724E02A871B86009761F1FC012081D1
:1002A000223051F58181882319F0823039F50AC056
:1002B000CE0101960E946F0460E070E080E00E9431
:1002C000780509C0CE0105960E946F0460E070E0D9
:1002D00082E00E947805CE0109960E94AD0084B7A5
:1002E000806484BF8BB780628BBF8FB780688FBFFD
:1002F00080E005C081E003C081E001C081E02B9671
:100300000FB6F894DEBF0FBECDBFDF91CF91089539
:100310004115510509F442C0823009F03FC06130F7
:10032000A1F018F06230D1F520C08091630020E484
:10033000829FC0011124AA2797FDA095BA2FFA0128
:1003400080839183A283B38329C080916200F0E40B
:100350008F9FC0011124AA2797FDA095BA2FFA01FB
:1003600080839183A283B38319C08091630020911D
:10037000620090E0821B910900249695879507946E
:10038000969587950794982F802DAA2797FDA0957D
:10039000BA2FFA0180839183A283B38381E0089509
:1003A0001F920F920FB60F9211242F933F934F93EA
:1003B0005F936F937F938F939F93AF93BF93EF93CD
:1003C000FF9380916000823069F08330B9F484B586
:1003D0008093630014BC82E00E94270182E0809336
:1003E00060000CC084B5809362008091620086BD7D
:1003F00083E00E94270183E080936000FF91EF91EA
:10040000BF91AF919F918F917F916F915F914F912C
:100410003F912F910F900FBE0F901F901895CF9383
:10042000DF93CDB7DEB760970FB6F894DEBF0FBE8F
:10043000CDBF91E0998395E09A8322E02B839C8342
:1004400023E02D8394E09E839FEF9F83288738E0ED
:1004500039879A872B8730E43C879D872E8720E851
:100460002F87988B813019F08230E9F40EC0CE01CD
:1004700005960E94AD00CE0108960E94AD00CE0107
:1004800001960E94D50280E00FC0CE010B960E941B
:10049000AD00CE010E960E94AD00CE0103960E94E3
:1004A000D50280E001C081E060960FB6F894DEBF0F
:1004B0000FBECDBFDF91CF910895813021F0823002
:1004C00009F056C02BC0613089F020F0623009F08D
:1004D00051C018C040E064E083E00E94F10040E0B9
:1004E00068E083E00E94F10080E008954FEF64E04F
:1004F00083E00E94F10040E068E083E00E94F100A8
:1005000080E0089540E064E083E00E94F1004FEF56
:1005100068E083E00E94F10080E00895613081F09E
:1005200018F0623049F518C040E060E483E00E94B2
:10053000F10040E060E883E00E94F10080E008956F
:100540004FEF60E483E00E94F10040E060E883E068
:100550000E94F10080E0089540E060E483E00E94A2
:10056000F1004FEF60E883E00E94F10080E0089521
:1005700081E0089580E0089580E00895813019F0C9
:10058000823089F408C020E030E0A90181E00E94B7
:10059000830380E0089520E030E0A90182E00E941A
:1005A000830380E0089581E00895CF93DF9300D026
:1005B00000D000D0CDB7DEB733E0398320E22A8304
:1005C0002FEF2B833C8330E13D832E83009709F48A
:1005D0008AC0FC012081213021F0223009F085C041
:1005E00042C0FC0181818330C9F030F4882351F08E
:1005F000813009F07CC00BC08530B9F0863009F03D
:1006000076C01AC010926500109264001BC081E091
:1006100090E0909365008093640014C083E090E0C4
:1006200090936500809364000DC084E090E0909307
:1006300065008093640006C085E090E090936500BB
:10064000809364008EB59FB5886091609FBD8EBD1C
:100650008EB59FB590689FBD8EBDCE0101960E945C
:10066000AD0080E047C0FC0181818330B9F028F4FF
:10067000882341F08130E9F50AC08530B1F0863039
:10068000C1F51AC010926700109266001BC081E08D
:1006900090E0909367008093660014C083E090E040
:1006A00090936700809366000DC084E090E0909383
:1006B00067008093660006C085E090E09093670035
:1006C000809366008EB59FB5886091609FBD8EBD9A
:1006D0008EB59FB590629FBD8EBDCE0104960E94DF
:1006E000AD0080E007C081E005C081E003C081E08B
:1006F00001C081E026960FB6F894DEBF0FBECDBFD5
:10070000DF91CF910895813019F08230C9F51CC076
:100710004EB55FB58091640090916500842B952B58
:100720009FBD8EBD8FEF689F900111243695279550
:1007300036952795ABE7B4E10E942C0696958795F0
:100740009BBD8ABD80E008954EB55FB5809166007F
:1007500090916700842B952B9FBD8EBD8FEF689F76
:10076000900111243695279536952795ABE7B4E18E
:100770000E942C069695879599BD88BD80E00895C6
:1007800081E008958F929F92AF92BF92EF92FF9275
:100790000F931F93CF93DF9300D000D0CDB7DEB778
:1007A00019821A821B821C826115710581059105CF
:1007B00019F52DC089809A80AB80BC80AFEF8A1A72
:1007C0009A0AAA0ABA0A89829A82AB82BC8221500A
:1007D000310981F74150510911F09F01EBCF0F5FB3
:1007E0001F4F4801AA2497FCA094BA2C861697069E
:1007F000A806B90650F00BC000E010E00F2EF3E1A0
:10080000EF2EF12CF02DE0E1F0E0A701E6CF0F9004
:100810000F900F900F90DF91CF911F910F91FF904C
:10082000EF90BF90AF909F908F90089581E00E94CD
:100830000F0282E00E940F0260E081E00E945D02F0
:1008400060E082E00E945D0268E281E00E94BE02F8
:1008500068E282E00E94BE0280E008958230F9F0F2
:1008600028F4882341F08130C1F50FC0833009F1AD
:10087000843099F528C060E081E00E945D0260E06C
:1008800082E00E945D0280E0089561E081E00E94C4
:100890005D0261E082E00E945D0280E0089562E016
:1008A00081E00E945D0262E082E00E945D0280E0E1
:1008B000089561E081E00E945D0262E082E00E94B2
:1008C0005D0280E0089562E081E00E945D0261E0E7
:1008D00082E00E945D0280E0089581E00895FC01BD
:1008E000009709F401C18081813009F450C020F0E3
:1008F000823009F0FBC0B0C08181882321F08130B3
:1009000009F03FC029C083B783BF82818230A1F044
:1009100028F4882351F08130B1F50AC08630A1F067
:100920008730B1F0843079F50BC0109268001AC09E
:1009300081E08093680016C082E08093680012C056
:1009400083E0809368000EC084E0809368000AC052
:1009500085E08093680006C083B7876083BF87E027
:10096000809368008381882319F0813071F404C07A
:1009700089B789BF80E0089589B7816089BF80E029
:10098000089581E0089581E0089581E008958181CE
:10099000882321F0813009F059C03EC08EB59FB543
:1009A0009FBD8EBD82818230D9F030F4882361F002
:1009B000813009F04DC00DC0863001F1873029F13A
:1009C000843009F045C013C010926A00109269008B
:1009D0002EC081E090E090936A008093690027C068
:1009E00082E090E090936A008093690020C083E0E9
:1009F00090E090936A008093690019C084E090E0D1
:100A000090936A008093690012C085E090E0909313
:100A10006A00809369000BC08EB59FB587609FBD4B
:100A20008EBD87E090E090936A0080936900838197
:100A3000882319F0813071F404C089B789BF80E040
:100A4000089589B7846089BF80E0089581E00895A2
:100A500081E0089581E00895818181113FC085B5CD
:100A600085BD82818330C1F020F4813069F080F44B
:100A700008C08530C9F0A0F08630D1F0873081F50C
:100A80001BC010926B001BC081E080936B0017C0ED
:100A900082E080936B0013C083E080936B000FC0F3
:100AA00084E080936B000BC085E080936B0007C0EF
:100AB00086E080936B0003C087E080936B008381A6
:100AC000882319F0813071F404C089B789BF80E0B0
:100AD000089589B7806889BF80E0089581E008950E
:100AE00081E0089581E0089581E0089581E008950E
:100AF000813061F018F08230F9F416C062BF93B70C
:100B000080916800892B83BF80E008957DBD6CBD16
:100B10002EB53FB58091690090916A00822B932B8E
:100B20009FBD8EBD80E0089564BD95B580916B003A
:100B3000892B85BD80E0089581E00895CF93DF93F0
:100B400000D000D01F92CDB7DEB7198282E08A8331
:100B50009FEF9B838C838D83CE0101960E94AD0015
:100B600081110FC040E062E00E94F10081110BC0D2
:100B7000CE0104960E94330191E0811105C090E0FE
:100B800003C091E001C091E0892F0F900F900F906A
:100B90000F900F90DF91CF9108954FEF62E080E0CA
:100BA0000E94F1006AE070E080E090E00E94C203E1
:100BB00040E062E080E00E94F10080E008950F9341
:100BC0001F93CF93DF9300D000D0CDB7DEB78C0159
:100BD00019821A821B821C82AE014F5F5F4F61E057
:100BE00082E00E94880169817A818B819C812AE35D
:100BF00030E040E050E00E940A06F8013183208393
:100C000080E00F900F900F900F90DF91CF911F9188
:100C10000F910895A1E21A2EAA1BBB1BFD010DC066
:100C2000AA1FBB1FEE1FFF1FA217B307E407F5079C
:100C300020F0A21BB30BE40BF50B661F771F881F78
:100C4000991F1A9469F760957095809590959B010E
:100C5000AC01BD01CF010895A29FB001B39FC001B7
:100C6000A39F01D0B29F700D811D1124911D089585
:040C7000F894FFCF26
:020C740003007B
:00000001FF
